:100000000C9434000C9449000C9449000C94490061
:100010000C9449000C9449000C9449000C9449003C
:100020000C9449000C9449000C9449000C9449002C
:100030000C9449000C9449000C9449000C9449001C
:100040000C9449000C9449000C9449000C9449000C
:100050000C9449000C9449000C9449000C944900FC
:100060000C9449000C94490011241FBECFEFD8E036
:10007000DEBFCDBF11E0A0E0B1E0E0E3F5E002C0FB
:1000800005900D92A230B107D9F70E94C7000C94D9
:1000900096020C9400008FEF84B985B98AB18F6005
:1000A0008AB98AB180618AB98AB18F7D8AB981EAB9
:1000B000809380008AE0809381008BB18F778BB929
:1000C0008BB18E7F8BB98BB182608BB98BB18B7FFB
:1000D0008BB98BB188608BB98091000190E09093CF
:1000E0008900809388008091000190E090938B00BC
:1000F00080938A0008958BB180618BB925E32A959E
:10010000F1F700008BB18F7E8BB980E69AEE4D99A6
:1001100004C0009721F420E003C020E001C021E0EA
:10012000222331F035E03A95F1F700000197EFCF47
:10013000892B39F160E070E080E69AEE4D9B04C0B7
:10014000009721F4322F03C0322F01C031E0332356
:1001500041F035E03A95F1F700006F5F7F4F01976E
:10016000EDCF892B89F080E090E00E949B0128E28E
:100170003EE74CE85CE30E9401020E946501CB016E
:1001800008958FE097E208958FE097E208950E9426
:100190004B000E947B000A970CF087C08BB18068EF
:1001A0008BB98BB18E7F8BB98BB18D7F8BB98BB1B6
:1001B0008B7F8BB98BB1877F8BB92FEF83ED90E36A
:1001C000215080409040E1F700C000008091010183
:1001D00090E0A8E8B0E011969C938E938091010185
:1001E00090E0EAE8F0E0918380838BB181608BB985
:1001F0008BB18D7F8BB98BB184608BB98BB1877FCD
:100200008BB92FEF8DE399E4215080409040E1F7C6
:1002100000C000008091000190E011969C938E93A5
:100220008091000190E0918380838BB18E7F8BB9A8
:100230008BB18D7F8BB98BB18B7F8BB98BB1877F66
:100240008BB92FEF8DE399E4215080409040E1F786
:1002500000C000008BB181608BB98BB18D7F8BB9F1
:100260008BB18B7F8BB98BB188608BB92FEF83ED0E
:1002700090E3215080409040E1F700C000008BB136
:100280008E7F8BB98BB18D7F8BB98BB18B7F8BB907
:100290008BB1877F8BB92FEF83ED90E321508040A6
:1002A0009040E1F700C0000074CF8BB18F778BB91D
:1002B0008BB18E7F8BB98BB182608BB98BB18B7F09
:1002C0008BB98BB188608BB964CF0E946C01689444
:1002D000B1110C94FB0108950E94E00188F09F5732
:1002E00098F0B92F9927B751B0F0E1F0660F771F5A
:1002F000881F991F1AF0BA95C9F714C0B13091F050
:100300000E94FA01B1E008950C94FA01672F782F4A
:100310008827B85F39F0B93FCCF386957795679514
:10032000B395D9F73EF490958095709561957F4F80
:100330008F4F9F4F0895E89409C097FB3EF4909526
:100340008095709561957F4F8F4F9F4F9923A9F0AE
:10035000F92F96E9BB279395F6958795779567953D
:10036000B795F111F8CFFAF4BB0F11F460FF1BC081
:100370006F5F7F4F8F4F9F4F16C0882311F096E914
:1003800011C0772321F09EE8872F762F05C06623C2
:1003900071F096E8862F70E060E02AF09A95660F7B
:1003A000771F881FDAF7880F9695879597F9089534
:1003B00057FD9058440F551F59F05F3F71F0479516
:1003C000880F97FB991F61F09F3F79F087950895FB
:1003D000121613061406551FF2CF4695F1DF08C01A
:1003E000161617061806991FF1CF86957105610537
:1003F00008940895E894BB2766277727CB0197F9DF
:1004000008950E9414020C9485020E94770238F02D
:100410000E947E0220F0952311F00C946E020C9441
:10042000740211240C94FB010E94D80170F3959F73
:10043000C1F3950F50E0551F629FF001729FBB27DB
:10044000F00DB11D639FAA27F00DB11DAA1F649F77
:100450006627B00DA11D661F829F2227B00DA11D2A
:10046000621F739FB00DA11D621F839FA00D611DB0
:10047000221F749F3327A00D611D231F849F600DD1
:10048000211D822F762F6A2F11249F5750409AF0FA
:10049000F1F088234AF0EE0FFF1FBB1F661F771F86
:1004A000881F91505040A9F79E3F510580F00C9451
:1004B0006E020C94FB015F3FE4F3983ED4F3869503
:1004C00077956795B795F795E7959F5FC1F7FE2BF1
:1004D000880F911D9695879597F9089597F99F67CD
:1004E00080E870E060E008959FEF80EC08950024BC
:1004F0000A941616170618060906089500240A9489
:1005000012161306140605060895092E0394000C0E
:1005100011F4882352F0BB0F40F4BF2B11F460FF9D
:1005200004C06F5F7F4F8F4F9F4F0895F894FFCFA8
:02053000FFB416
:00000001FF
